{
  "contractName": "Verifier",
  "abi": [
    {
      "inputs": [],
      "stateMutability": "nonpayable",
      "type": "constructor"
    },
    {
      "inputs": [
        {
          "internalType": "string",
          "name": "token",
          "type": "string"
        },
        {
          "internalType": "address",
          "name": "userContract",
          "type": "address"
        }
      ],
      "name": "verifyToken",
      "outputs": [
        {
          "internalType": "address",
          "name": "",
          "type": "address"
        }
      ],
      "stateMutability": "nonpayable",
      "type": "function"
    },
    {
      "inputs": [
        {
          "internalType": "string",
          "name": "token",
          "type": "string"
        }
      ],
      "name": "getVerifiedUserAddress",
      "outputs": [
        {
          "internalType": "address",
          "name": "user",
          "type": "address"
        }
      ],
      "stateMutability": "view",
      "type": "function",
      "constant": true
    }
  ],
  "bytecode": "0x608060405234801561001057600080fd5b50336000806101000a81548173ffffffffffffffffffffffffffffffffffffffff021916908373ffffffffffffffffffffffffffffffffffffffff1602179055506105bc806100606000396000f3fe608060405234801561001057600080fd5b50600436106100365760003560e01c8063dca34dfc1461003b578063f202db391461006b575b600080fd5b610055600480360381019061005091906103b2565b61009b565b604051610062919061041d565b60405180910390f35b61008560048036038101906100809190610438565b610123565b604051610092919061041d565b60405180910390f35b6000816001846040516100ae91906104f2565b908152602001604051809103902060006101000a81548173ffffffffffffffffffffffffffffffffffffffff021916908373ffffffffffffffffffffffffffffffffffffffff16021790555060008054906101000a900473ffffffffffffffffffffffffffffffffffffffff16905092915050565b60008060009054906101000a900473ffffffffffffffffffffffffffffffffffffffff1673ffffffffffffffffffffffffffffffffffffffff163373ffffffffffffffffffffffffffffffffffffffff16146101b4576040517f08c379a00000000000000000000000000000000000000000000000000000000081526004016101ab90610566565b60405180910390fd5b6001826040516101c491906104f2565b908152602001604051809103902060009054906101000a900473ffffffffffffffffffffffffffffffffffffffff169050919050565b6000604051905090565b600080fd5b600080fd5b600080fd5b600080fd5b6000601f19601f8301169050919050565b7f4e487b7100000000000000000000000000000000000000000000000000000000600052604160045260246000fd5b61026182610218565b810181811067ffffffffffffffff821117156102805761027f610229565b5b80604052505050565b60006102936101fa565b905061029f8282610258565b919050565b600067ffffffffffffffff8211156102bf576102be610229565b5b6102c882610218565b9050602081019050919050565b82818337600083830152505050565b60006102f76102f2846102a4565b610289565b90508281526020810184848401111561031357610312610213565b5b61031e8482856102d5565b509392505050565b600082601f83011261033b5761033a61020e565b5b813561034b8482602086016102e4565b91505092915050565b600073ffffffffffffffffffffffffffffffffffffffff82169050919050565b600061037f82610354565b9050919050565b61038f81610374565b811461039a57600080fd5b50565b6000813590506103ac81610386565b92915050565b600080604083850312156103c9576103c8610204565b5b600083013567ffffffffffffffff8111156103e7576103e6610209565b5b6103f385828601610326565b92505060206104048582860161039d565b9150509250929050565b61041781610374565b82525050565b6000602082019050610432600083018461040e565b92915050565b60006020828403121561044e5761044d610204565b5b600082013567ffffffffffffffff81111561046c5761046b610209565b5b61047884828501610326565b91505092915050565b600081519050919050565b600081905092915050565b60005b838110156104b557808201518184015260208101905061049a565b60008484015250505050565b60006104cc82610481565b6104d6818561048c565b93506104e6818560208601610497565b80840191505092915050565b60006104fe82846104c1565b915081905092915050565b600082825260208201905092915050565b7f43616c6c6572206973206e6f74206f776e657200000000000000000000000000600082015250565b6000610550601383610509565b915061055b8261051a565b602082019050919050565b6000602082019050818103600083015261057f81610543565b905091905056fea2646970667358221220171206aeafde79e6e35f4132434afaa2521321121c80d2337fa45bd99c7826ac64736f6c63430008110033",
  "immutableReferences": {},
  "source": "// SPDX-License-Identifier: GPL-3.0\n\npragma solidity >=0.7.0 <0.9.0;\n\ncontract Verifier {\n    // verifier wallet address - to restrict the access of verified personal details only to the verifier\n    address private owner;\n\n    constructor() {\n        owner = msg.sender;\n    }\n\n    // store the verified tokens and addresses of the users with that token\n    mapping(string => address) verified_tokens;\n\n    // modifier to restrict the access of verified personal details only to the verifier\n    modifier isOwner() {\n        require(msg.sender == owner, \"Caller is not owner\");\n        _;\n    }\n\n    // public function called by any user who scans the QR code\n    // adds token and wallet address of the user\n    function verifyToken(string memory token, address userContract)\n        external\n        returns (address)\n    {\n        verified_tokens[token] = userContract;\n        return owner;\n    }\n\n    // get the wallet address of verified user by the token\n    function getVerifiedUserAddress(string memory token)\n        public\n        view\n        isOwner\n        returns (address user)\n    {\n        return verified_tokens[token];\n    }\n}\n",
  "sourcePath": "/home/akilag/Documents/Sem-5/CS3202 - Software Engineering Project - 2/Code/test-create-wallet/contracts/verifier_contract.sol",
  "compiler": {
    "name": "solc",
    "version": "0.8.17+commit.8df45f5f.Emscripten.clang"
  },
  "schemaVersion": "3.4.10",
  "updatedAt": "2022-11-11T10:08:51.153Z",
  "networkType": "ethereum",
  "devdoc": {
    "kind": "dev",
    "methods": {},
    "version": 1
  },
  "userdoc": {
    "kind": "user",
    "methods": {},
    "version": 1
  }
}